:100000000C945D000C9485000C9485000C94850084
:100010000C9485000C9485000C9485000C9485004C
:100020000C9485000C9485000C9485000C9485003C
:100030000C9485000C9485000C9485000C9485002C
:100040000C94C0050C9485000C944E040C9471091A
:100050000C9485000C9485000C9485000C9485000C
:100060000C94B4070C948500000000070002010006
:100070000003040600000000000000000000000073
:10008000250028002B0000000000240027002A0083
:10009000040404040404040402020202020203032E
:1000A0000303030301020408102040800102040836
:1000B00010200102040810204D1111241FBECFEFA3
:1000C000D8E0DEBFCDBF12E0A0E0B1E0EEECFCE294
:1000D00002C005900D92AA37B107D9F724E0AAE72C
:1000E000B2E001C01D92A934B207E1F710E0CDE5FE
:1000F000D0E004C02197FE010E945F16CC35D107E5
:10010000C9F70E94AC090C948A130C940000CF929A
:10011000DF92EF92FF920F931F93CF93DF936C01C7
:10012000EB017B01E40EF51E00E010E0CE15DF05CB
:1001300061F06991D601ED91FC910190F081E02D83
:10014000C6010995080F191FF1CFC801DF91CF91A2
:100150001F910F91FF90EF90DF90CF90089590E066
:10016000FC01E859FF4F2491FC01EC55FF4F3491FD
:10017000FC01E057FF4FE491EE2309F43CC0222339
:1001800039F1233091F038F42130A9F0223001F513
:1001900084B58F7D12C0263091F02730A1F0243035
:1001A000B9F4809180008F7D03C0809180008F77AB
:1001B000809380000DC084B58F7784BD09C0809185
:1001C000B0008F7703C08091B0008F7D8093B00026
:1001D000F0E0EE0FFF1FE458FF4FA591B4919FB7D9
:1001E000F894611104C08C913095382302C0EC91D1
:1001F0003E2B3C939FBF08953FB7F89480917F02B8
:1002000090918002A0918102B091820226B5A89BB4
:1002100005C02F3F19F00196A11DB11D3FBFBA2F98
:10022000A92F982F8827820F911DA11DB11DBC01F8
:10023000CD0142E0660F771F881F991F4A95D1F7BD
:100240000895CF92DF92EF92FF92CF93DF936B01ED
:100250007C010E94FC00EB01C114D104E104F10413
:1002600079F00E94FC006C1B7D0B683E7340A0F38C
:1002700081E0C81AD108E108F108C851DC4FECCF81
:10028000DF91CF91FF90EF90DF90CF9008952FB73F
:10029000F89460917B0270917C0280917D02909134
:1002A0007E022FBF08958F929F92AF92BF92CF92FE
:1002B000DF92EF92FF92CF93DF93FC01C080D18059
:1002C000E280F380FB0180809180A280B380A50151
:1002D0009401C701B6010E94501487FD0DC0D1E002
:1002E000C0E0A5019401C701B6010E94501487FF28
:1002F000D0E08D2F9C2F02C08FEF9FEFDF91CF9129
:10030000FF90EF90DF90CF90BF90AF909F908F9035
:1003100008951F93CF93DF93182FEB010E944D0791
:10032000209711F460E004C0CF3FD10539F461E0BB
:10033000812FDF91CF911F910C94AF00E12FF0E05E
:10034000E859FF4FE491E330F9F048F4E130B9F0B7
:10035000E230A1F584B5806284BDC8BD34C0E6300A
:10036000E9F0E73019F1E43049F5809180008062CE
:1003700080938000D0938B00C0938A0024C084B502
:10038000806884BDC7BD1FC0809180008068809355
:100390008000D0938900C093880015C08091B00080
:1003A00080688093B000C093B3000DC08091B0000E
:1003B00080628093B000C093B40005C0C038D105FE
:1003C0000CF0B5CFAFCFDF91CF911F91089561159C
:1003D000710579F0FB0101900020E9F73197AF0139
:1003E000461B570BDC01ED91FC910280F381E02D5F
:1003F000099480E090E008950C94E7012F923F92D9
:100400004F925F926F927F928F929F92AF92BF9224
:10041000CF92DF92EF92FF920F931F93CF93DF93D0
:10042000CDB7DEB76B970FB6F894DEBF0FBECDBF6A
:100430001C01DC011C968C918E3008F08E50877068
:10044000806480937C0080917A00806480937A003D
:1004500080917A0086FDFCCF209178004091790050
:10046000F1018085918530E0342B281739070CF491
:100470009C01D10196960D911C9197977801EE0CF5
:10048000FF1CEE0CFF1CE20CF31C1A966D917C9184
:100490001B97261737070CF4B901072E000C880BA1
:1004A000990B0E94FF14F701628B738B848B958BE1
:1004B000C801019665E070E00E942916D101979667
:1004C0009C938E9396975296FE01319691012A5DE8
:1004D0003F4FCF014D915D916D917D91419351932E
:1004E00061937193A217B307A9F723E531E044E0C4
:1004F00050E065E070E00E94E611F1010085118591
:10050000B801012E000C880B990B0E94FF149B016F
:10051000AC0169857A858B859C850E94E3136B010C
:100520007C01D1011A966D917C911B97601B710B18
:10053000072E000C880B990B0E94FF149B01AC0145
:10054000C701B6010E9455149B01AC0160E070E048
:1005500080E89FE30E94E31320E030E048E453E4A6
:100560000E94B415F10160A771A782A793A7E55B6C
:10057000FF4F8081811171C0D101D096BC91BD8B9C
:10058000B11115C0F101E95BFF4F10821182128297
:100590001382F10116AE15AE60E082810E94AF00B9
:1005A00060E0D10116968C910E94AF005DC10E945F
:1005B00047016E8B7F8B888F998FF10181A992A95A
:1005C000A3A9B4A92E893F89488D598D281B390BC1
:1005D0004A0B5B0BCA01B9010E94FD1420E030E018
:1005E0004AE754E40E9455144B015C01D1019896EE
:1005F0002D913D914D915C919B979C966D917D9134
:100600008D919C919F970E94E31320E030E048E495
:1006100053E40E9455146B017C019F772AE037ED6B
:1006200043E25CE30E94501487FF19C0F10110AA55
:10063000E95BFF4F1082118212821382D101DE9694
:100640001C921E92DD9760E012968C910E94AF0082
:1006500060E0F10186810E94AF001D8A05C12DEC8A
:100660003CEC4CE45DE3C501B4010E94501487FDED
:10067000F4CF20E030E0A901C701B6010E94AF1518
:1006800018163CF0C12CD12C55E7E52E53ECF52E75
:1006900006C0C12CD12C45E7E42E43E4F42E2E896C
:1006A0003F89488D598DD101D1962D933D934D931E
:1006B0005C93D497F101FF96FB8FEA8F8081918143
:1006C000A281B381281B390B4A0B5B0BCA01B9010C
:1006D0000E94FD1420E030E04AE754E40E945514E3
:1006E0004B015C0120E030E0A901C701B6010E9486
:1006F000AF15D101DD960D911C91DE9718160CF007
:1007000048C020E030E045E753E4C701B6010E944D
:10071000AF15181674F020E030E040E251E4C70154
:10072000B6010E94501487FF0AC0C12CD12C76015B
:1007300006C0C12CD12C35E7E32E33E4F32E17FD90
:1007400074C0B801110F880B990B0E94FF142B0184
:100750003C019B01AC01C701B6010E94E313A50156
:1007600094010E94551420E030E048E454E40E94D3
:10077000AF1518160CF066C020E030E048E454E4F1
:10078000C501B4010E94B415A30192010E94E413B3
:1007900049C020E030E045E753ECC701B6010E94B4
:1007A000501487FD0EC020E030E040E251ECC7015C
:1007B000B6010E94AF15181654F4C12CD12C760145
:1007C00006C0C12CD12C25E7E22E23ECF22E101608
:1007D000110694F1B801110F880B990B0E94FF14B8
:1007E0002B013C019B01AC01C701B6010E94E31340
:1007F000A50194010E94551420E030E048E454EC37
:100800000E94501487FF1EC020E030E048E454E40A
:10081000C501B4010E94B4159B01AC01C301B20132
:100820000E94E3136B017C010DC0C12CD12C98EC0C
:10083000E92E92E4F92E06C0C12CD12C88ECE82ECA
:1008400082ECF82EC701B6010E94C714F10176AF01
:1008500065AF2E893F89488D598DAA8DBB8D2D930B
:100860003D934D935C9313978D896B960FB6F894D7
:10087000DEBF0FBECDBFDF91CF911F910F91FF90D3
:10088000EF90DF90CF90BF90AF909F908F907F9030
:100890006F905F904F903F902F9008951F920F920E
:1008A0000FB60F9211242F934F935F938F939F93C3
:1008B000EF93FF938091C00082FD1CC02091C60081
:1008C00080914A0390914B0340914C0350914D030A
:1008D00001968F7399274817590771F0E0914A03E1
:1008E000F0914B03E65FFC4F208390934B03809382
:1008F0004A0302C08091C600FF91EF919F918F91B2
:100900005F914F912F910F900FBE0F901F901895F0
:100910008F929F92AF92BF92CF92DF92EF92FF920F
:100920000F931F93CF93DF93CDB7DEB7A1970FB689
:10093000F894DEBF0FBECDBF6C01142FE52FCB01A5
:10094000022F19A2223008F40AE07E0121E2E20E11
:10095000F11C802E912CA12CB12C612F7E2FA50192
:1009600094010E943D16029F1019112481E0E81A9B
:10097000F1081A3014F4105D01C0195CF7011083FE
:10098000122FE32FCA01232B242B252B31F7B7017C
:10099000C6010E94E701A1960FB6F894DEBF0FBE14
:1009A000CDBFDF91CF911F910F91FF90EF90DF901E
:1009B000CF90BF90AF909F908F900895DC01ED9104
:1009C000FC910190F081E02D09947F928F929F928B
:1009D000AF92BF92CF92DF92EF92FF920F931F934D
:1009E000CF93DF938C016A017B01722E9A01AB01D8
:1009F000C701B6010E942116882319F060E272E057
:100A000027C046015701E894B7F82FEF3FEF4FE7B3
:100A10005FE7C501B4010E94211681110DC02FEFBF
:100A20003FEF4FE75FE7C501B4010E94501418166D
:100A30001CF464E272E00CC02FEF3FEF4FE75FE47D
:100A4000C701B6010E94AF15181694F468E272E06F
:100A5000C801DF91CF911F910F91FF90EF90DF9030
:100A6000CF90BF90AF909F908F907F900C94E701B4
:100A70002FEF3FEF4FE75FECC701B6010E94501424
:100A800087FDE4CF20E030E0A901C701B6010E9454
:100A9000501487FF0AC06DE2C8010E94DE04EC0119
:100AA000F7FAF094F7F8F09402C0C0E0D0E0B12C6F
:100AB00060E070E080E09FE37B1441F020E030E0F4
:100AC00040E251E40E945514B394F6CFA701960179
:100AD0000E94E4136B017C010E94CE144B015C0167
:100AE0002AE0AB01BC01C8010E948804C80FD91FCD
:100AF0007720B9F1C501B4010E94FD149B01AC013E
:100B0000C701B6010E94E3136B017C016CE272E045
:100B1000C8010E94E701C80FD91F20E030E040E281
:100B200051E4C701B6010E94B4154B015C010E945B
:100B3000C7146B017C01C8010E947E07C80FD91F32
:100B4000B601DD0C880B990B0E94FF149B01AC01D0
:100B5000C501B4010E94E3136B017C017A9471100A
:100B6000DCCFCE01DF91CF911F910F91FF90EF90DD
:100B7000DF90CF90BF90AF909F908F907F9008951F
:100B80001F920F920FB60F9211242F933F938F93C2
:100B90009F93AF93BF9380917B0290917C02A09131
:100BA0007D02B0917E0230917A0223E0230F2D372F
:100BB00020F40196A11DB11D05C026E8230F029661
:100BC000A11DB11D20937A0280937B0290937C0239
:100BD000A0937D02B0937E0280917F02909180026B
:100BE000A0918102B09182020196A11DB11D809356
:100BF0007F0290938002A0938102B0938202BF9102
:100C0000AF919F918F913F912F910F900FBE0F90B9
:100C10001F90189585ED8093BC008091BC0084FDE9
:100C2000FCCF1092FB020895613298F42091FB02F0
:100C3000243089F46093BE03282FAEE9B3E0FC01B1
:100C40008E2F821B861718F481918D93F9CF80E047
:100C5000089581E0089582E00895089581E090E08C
:100C60003091FA022091F902321710F480E090E0FE
:100C700091958195910908958091FA029091F902D8
:100C8000891730F48F5F8093FA0280E090E0089536
:100C90008FEF9FEF08958091F90290E02091FA0282
:100CA000821B91090895CF92DF92EF92FF920F93EA
:100CB0001F93CF93DF937C01CB018A0120919D0389
:100CC000222389F0EB016B01C40ED51ECC15DD0586
:100CD00069F06991D701ED91FC910190F081E02DCF
:100CE000C7010995F3CF642F0E941406C801DF9154
:100CF000CF911F910F91FF90EF90DF90CF900895CB
:100D0000CF93DF931F92CDB7DEB7698320919D0308
:100D10002223D1F02091F802203240F021E030E08F
:100D2000FC013383228380E090E015C08091F702BC
:100D3000E82FF0E0E358FC4F998190838F5F809318
:100D4000F7028093F80205C061E0CE0101960E948F
:100D5000140681E090E00F90DF91CF9108950895FF
:100D60000F931F93CF93DF93FC01A685B7858D0169
:100D7000005C1F4FE8018881998101968F73992744
:100D8000AD014E5B5F4FEA01288139812817390791
:100D9000D1F3E80128813981A20FB31F6C93A68596
:100DA000B785A05CBF4F11969C938E93A689B78997
:100DB0002C9181E090E0078C02C0880F991F0A9463
:100DC000E2F7822B8C9381E081A30488F589E02DE2
:100DD00080818064808381E090E0DF91CF911F91DA
:100DE0000F910895FC0181A1882329F0A489B58978
:100DF0008C9186FFFBCF11A20895FC01A485B585D7
:100E0000FD01E05CFF4F208131813296808191812C
:100E10002817390779F080819181A80FB91F8C912B
:100E2000208131812F5F3F4F2F7333273183208300
:100E300090E008958FEF9FEF0895DC011C96ED91EF
:100E4000FC911D97DF01A05CBF4F2D913C91119744
:100E500012968D919C9111972817390739F08D9131
:100E60009C91E80FF91F808190E008958FEF9FEF2C
:100E70000895FC0124853585F901E05CFF4F8081F0
:100E80009181329620813181821B930B8F73992738
:100E900008958EE493E00C94390790E0FC01EC5542
:100EA000FF4F2491FC01E057FF4F8491882399F074
:100EB00090E0880F991FFC01EA57FF4FA591B4916C
:100EC000FC01E458FF4F859194918FB7F894EC9111
:100ED000E22BEC938FBF0895CF93DF936DE08EE408
:100EE00093E00E94DE04EC016AE08EE493E00E944D
:100EF000DE048C0F9D1FDF91CF910895CF92DF927A
:100F0000EF92FF920F931F93CF93DF936B01770FB5
:100F1000EE08FF08F7FE1BC0EC016DE20E94DE0444
:100F20008C0144275527BA014C195D096E097F09C8
:100F30002AE0CE010E948804800F911FDF91CF919B
:100F40001F910F91FF90EF90DF90CF9008952AE0CE
:100F5000B701A601DF91CF911F910F91FF90EF9004
:100F6000DF90CF900C9488041F920F920FB60F92CF
:100F700011242F933F934F935F936F937F938F939E
:100F80009F93AF93BF93EF93FF938091B900887FB6
:100F9000803609F49CC068F5883209F45BC090F48F
:100FA000803109F454C038F4882309F4EFC0883044
:100FB00009F44DC0EFC0883109F44CC0803209F407
:100FC0005DC0E8C0803409F468C048F4803309F497
:100FD00055C0883309F0DEC08093E103D1C080356D
:100FE00009F44FC0883509F45DC0883409F0D2C0D7
:100FF000CFC0883909F4C0C0A8F4883709F467C0A5
:1010000038F4883609F463C0803709F460C0C2C080
:10101000883809F4B1C0803909F45FC0803809F01C
:10102000B9C05BC0803B09F481C038F4803A09F450
:1010300066C0883A09F47AC0ADC0803C09F4A0C00B
:10104000883C09F49DC0883B09F483C0A3C080910B
:10105000040410C09091030480910204981770F565
:10106000E091030481E08E0F80930304F0E0EE51E1
:10107000FC4F80818093BB0085EC7FC08093E103AF
:1010800087C0E091030481E08E0F80930304809178
:10109000BB00F0E0EE51FC4F8083909103048091FF
:1010A000020467C0E091030481E08E0F8093030483
:1010B0008091BB00F0E0EE51FC4F80838091FD02F7
:1010C000811166C081E08093FC0284EA5AC083E00B
:1010D0008093FB021092E003CFCF8091E003803237
:1010E00008F04AC0E091E00381E08E0F8093E003B6
:1010F0008091BB00F0E0E054FC4F8083BDCF809135
:10110000E003803230F4E091E003F0E0E054FC4F83
:1011100010820E940A066091E00370E080EC93E088
:10112000E0E0F0E009951092E0032AC084E08093AB
:10113000FB021092BF031092BE03E0E0F0E00995BD
:101140008091BE03811105C081E08093BE0310929F
:101150009E03E091BF0381E08E0F8093BF03F0E018
:10116000E256FC4F80818093BB009091BF03809139
:10117000BE03981708F480CF85E88093BC000AC0AE
:1011800085EC8093BC001092FB0204C01092E10336
:101190000E940A06FF91EF91BF91AF919F918F91AD
:1011A0007F916F915F914F913F912F910F900FBE63
:1011B0000F901F901895CF93FC01C48121E02093DC
:1011C0009D03C0937C031092F7021092F80283856E
:1011D000682B8EEF92E00E9480069091F802913287
:1011E00008F041C08091FB028111FCCF82E0809326
:1011F000FB0281E08093FD028FEF8093E103109268
:10120000030490930204ADE7B3E0E2EEF3E080E084
:10121000981721F02D9121938F5FFACF109204043B
:1012200080910404CC0FC82BC09304048091FC026D
:10123000813041F41092FC02809104048093BB0041
:1012400085EC01C085EE8093BC008091FB0282306A
:10125000E1F38091E1038F3F31F08091E10380322F
:1012600011F08091E1031092F7021092F8021092AF
:101270009D03CF9108950F931F93CF938C01C62F99
:101280000E94DB086C2F6460C8010E94DB086C2F91
:101290006B7FC8010E94DB0882EC90E00197F1F7B8
:1012A000CF911F910F9108950F931F93CF93DF93C9
:1012B0008C01C62FD42F607F642B0E943B0980E1F4
:1012C000C89FB00111246D2BC801DF91CF911F91F0
:1012D0000F910C943B0941E00E94540981E090E099
:1012E00008951F920F920FB60F9211242F933F93E0
:1012F0008F939F93EF93FF93209145043091460481
:1013000080914704909148042817390731F480915F
:10131000C1008F7D8093C10014C0E0914704F0911B
:101320004804EB5FFB4F2081809147049091480473
:1013300001968F73992790934804809347042093D4
:10134000C600FF91EF919F918F913F912F910F9048
:101350000FBE0F901F901895CF93DF93CDB7DEB7D8
:1013600062970FB6F894DEBF0FBECDBF789484B5F8
:10137000826084BD84B5816084BD85B5826085BD91
:1013800085B5816085BD80916E00816080936E001F
:101390001092810080918100826080938100809111
:1013A00081008160809381008091800081608093C2
:1013B00080008091B10084608093B1008091B00082
:1013C00081608093B00080917A00846080937A007D
:1013D00080917A00826080937A0080917A008160A7
:1013E00080937A0080917A00806880937A001092CE
:1013F000C100E0916203F091630381E090E09C0101
:1014000000906E0302C0220F331F0A94E2F720837C
:10141000E0915E03F0915F031082E0916003F09130
:10142000610320E1208310926F03E0916403F09147
:10143000650340819C0100906A0302C0220F331FA4
:101440000A94E2F7242B2083E0916403F091650372
:1014500040819C0100906B0302C0220F331F0A944D
:10146000E2F7242B2083E0916403F091650340812F
:101470009C0100906C0302C0220F331F0A94E2F714
:10148000242B2083E0916403F09165032081009078
:101490006D0302C0880F991F0A94E2F7809582239A
:1014A000808306E2E02E01E0F02E00E011E0D8019A
:1014B0008C910E944D07F80184810E944D07D8014C
:1014C00012968C910E944D07F80186810E944D076B
:1014D00060E0D8018C910E94AF0060E0F801848147
:1014E0000E94AF0060E0D80112968C910E94AF007C
:1014F00060E0F80186810E94AF000E944701D80198
:10150000D1966D937D938D939C93D497D0961C9296
:10151000D097F80115AA16AA17AA10AED9961D924F
:101520001D921D921C92DC97DE961C921E92DD97F6
:10153000F70111A212A213A214A215A20E94470140
:10154000D70159966D937D938D939C935C97F80189
:1015500072961192119211921192EE16FF06C9F72E
:10156000F70111821082045B1F4FFCE4EF0EF11CA7
:1015700021E0043E120709F09ACF1092FA0210926D
:10158000F9021092F7021092F8021092FB0281E029
:101590008093FD021092FC0261E082E10E94AF00A4
:1015A00061E083E10E94AF008091B9008E7F80935B
:1015B000B9008091B9008D7F8093B90088E4809351
:1015C000B80085E48093BC00109275038091790384
:1015D000823018F098E09093750390917A039923E4
:1015E00039F0813029F4809175038460809375030C
:1015F00062E370E080E090E00E94210160917B0353
:1016000080E793E00E94DB0868EE73E080E090E002
:101610000E94210160E380E793E00E943B090AE415
:1016200016E4C8010197F1F760E380E793E00E94B8
:101630003B09C8010197F1F760E380E793E00E945E
:101640003B0982E592E00197F1F760E280E793E0E1
:101650000E943B0960917503606240E080E793E07F
:101660000E94540984E08093760340E06CE080E7B8
:1016700093E00E94540940E061E080E793E00E941B
:1016800054090AE31FE1C8010197F1F782E0809352
:10169000770340E066E080E793E00E94540940E071
:1016A00062E080E793E00E945409C8010197F1F7D6
:1016B00088E080937B0360E080E793E00E94DB0892
:1016C0006EE272E080E793E00E94FC0183E090E02C
:1016D0009093F2028093F1020E9447010091F3027D
:1016E0001091F4022091F5023091F602DC01CB0159
:1016F000801B910BA20BB30B893E9340A105B10552
:1017000008F4B2C040E061E080E793E00E94540931
:101710008AE39FE10197F1F76CE372E080E793E0E1
:101720000E94FC016091F1027091F20280E793E067
:101730000E947E0764E772E080E793E00E94FC016C
:1017400067E070E080E793E00E947E0769E472E062
:1017500080E793E00E94FC0188E0E4EEF1E0DE0126
:10176000119601900D928A95E1F78091790381118C
:1017700002C08FEF01C081E0FE013196E80FF11D3C
:10178000E80FF11D6081606840E080E793E00E940F
:1017900054096091EF027091F0021CE4169FF00171
:1017A000179FF00D1124E050FF4F80A98823D1F13D
:1017B0006F5B80E793E00E94DE046BE472E080E7F9
:1017C00093E00E94FC018091EF029091F002189F3B
:1017D000F001199FF00D1124E050FF4F40A551A5D5
:1017E00062A573A522E080E793E00E94E5046DE422
:1017F00072E080E793E00E94FC018091EF029091FB
:10180000F002189FF001199FF00D1124E050FF4FD6
:1018100044A555A566A577A522E080E793E00E9440
:10182000E5040BC06F5980E793E00E94DE046FE48B
:1018300072E080E793E00E94FC010E944701609300
:10184000F3027093F4028093F5029093F602809174
:10185000EF029091F002019663E070E00E94291679
:101860009093F0028093EF020E9447010091EB02F7
:101870001091EC022091ED023091EE02DC01CB01DF
:10188000801B910BA20BB30B893C9105A105B105FF
:1018900008F453C06AE572E08EE493E00E94FC0114
:1018A00000E011E0D801D0966C9170E08EE493E0F6
:1018B0000E947E076BE38EE493E00E94DE04F80151
:1018C00040A551A562A573A522E08EE493E00E9495
:1018D000E5046BE38EE493E00E94DE04D8019C965D
:1018E0004D915D916D917C919F9722E08EE493E004
:1018F0000E94E5046BE38EE493E00E94DE04F801AD
:1019000065AD76AD8EE493E00E947E0760E28EE4E2
:1019100093E00E94DE04045B1F4FF1E0043E1F07CA
:1019200009F60E946C070E9447016093EB027093D6
:10193000EC028093ED029093EE028EE493E00E941D
:10194000FD069093EA028093E902CF97B1F46DE52A
:1019500072E08EE493E00E94FC016091F1027091CC
:10196000F2028EE493E00E947E0761E672E08EE46C
:1019700093E00E94E7010E946C07E090E702F0907C
:10198000E8020091E9021091EA02E114F10439F44D
:10199000C8018F7D815491090397B0F022C01E14B5
:1019A0001F04FCF4C8010E94DB13892B69F4C801F1
:1019B000C0970A9748F00E32110531F00F35110526
:1019C00019F00332110569F4F701ED57FD4F8091CD
:1019D000E90280832FEFE21AF20AF092E802E09225
:1019E000E7020A30110509F01DC1E091E702F0910C
:1019F000E802ED57FD4F108213E8C12E12E0D12E00
:101A0000EE24E394D6018C91813419F410924B01A9
:101A100004C0813629F4E0924B0100E011E013C0CC
:101A2000823419F41092970104C0823629F4E092AE
:101A300097010CE411E007C0833409F0EFC0109265
:101A4000E30108E911E0F80114A615A616A617A6E9
:101A5000D60111968C918F3589F4E55BFF4F10828A
:101A6000F80110AAE95BFF4F1082118212821382E3
:101A7000D801DE961C921E92DD97D0C03601BFEFD2
:101A80006B1A7B0A1D86812C912CB0E8AB2EBFE32C
:101A9000BB2E23014C185D081301F301F1903F01A7
:101AA000FAE0FF16F1F1FF20E1F123E2F216C9F1AD
:101AB0003EE2F31699F120E030E040E251E4D80133
:101AC0009C966D917D918D919C919F970E94B415EC
:101AD0001B012C016F2DFF0C770B60537109072E32
:101AE000000C880B990B0E94FF149B01AC01C201F2
:101AF000B1010E94E413F80164A775A786A797A710
:101B0000FD85FF2331F220E030E040E251E4C501E1
:101B1000B4010E94B4154B015C01BBCF21E02D87BD
:101B2000B8CFA5019401D8019C966D917D918D91BE
:101B30009C919F970E945514F80164A775A786A7EA
:101B400097A763E672E08EE493E00E94FC010E9496
:101B50004701AB01BC012AE08EE493E00E948804B7
:101B600066E772E08EE493E00E94FC01D8019C9647
:101B70004D915D916D917C919F9722E08EE493E071
:101B80000E94E5040E946C07F801E95BFF4F108298
:101B90001182128213825801B3E4AB0EB11CF8011A
:101BA00080A591A5A2A5B3A5F50180839183A28309
:101BB000B383D801D0968C91D097811125C0D0964F
:101BC000EC920E944701F80161AB72AB83AB94AB1E
:101BD00015AA16AA17AA10AE11AE12AE13AE14AE05
:101BE00016AE15AE0E944701F801FF96608371831F
:101BF00082839383F80180A591A5A2A5B3A5F501E1
:101C000080839183A283B383D1018C91882331F0A7
:101C1000BFEF4B1A5B0AC40CD51CF4CE1092E8023D
:101C20001092E70280E091E00E94FE01182F8CE400
:101C300091E00E94FE01811111E088E991E00E948B
:101C4000FE01811103C0112309F450C08CE0ECEEB9
:101C5000F1E0DE01119601900D928A95E1F70EE018
:101C600011E09E012F5F3F4F3E872D877901712C38
:101C7000C12CD12CF80182A181118EC0045B1F4FB1
:101C800024E0E20EF11C31E0023F130799F782E0F5
:101C9000C816D1040CF0E9C080E090E0A0E8BFE3F2
:101CA0008093470190934801A0934901B0934A0162
:101CB0008093930190939401A0939501B093960122
:101CC0008093DF019093E001A093E101B093E201E2
:101CD00000E011E0D801D0968C91D0978111B4C268
:101CE000045B1F4FF1E0043E1F07A1F700E011E085
:101CF000F801E55BFF4F8081882309F443C061E070
:101D0000D80112968C910E94AF0061E0F8018681A3
:101D10000E94AF00D8019C96CD90DD90ED90FC9094
:101D20009F9720E030E04AEF53E4C701B6010E94DC
:101D3000AF151816A4F420E030E04AEF53E4C701D1
:101D4000B6010E94E3130E94C714F80180810E942B
:101D5000890160E070E0D80114968C9111C060E0B8
:101D600070E0F80180810E948901D8019C966D91F4
:101D70007D918D919C919F970E94C714F801848159
:101D80000E948901045B1F4FF1E0043E1F0709F028
:101D9000AFCF0E944907A0CC20E030E0A90161AD9F
:101DA00072AD83AD94AD0E945014811120C0D80152
:101DB000D5962D913D914D915C91D8975E966D9100
:101DC0007D918D919C9191970E94E3139F77F801EB
:101DD00020813181428153810E945514D7016D9336
:101DE0007D938D939C9313977724739447CFF80139
:101DF00025A836A847A850ACA2019101668D778D21
:101E000080A191A10E94E3134B015C01E894B7F813
:101E10002AE037ED43E25CE3C501B4010E945014AF
:101E200087FF0AC080E090E0A0E8BFEBF701808365
:101E30009183A283B38322CFA2019101D8015A9644
:101E40006D917D918D919C915D970E94E3139F7799
:101E5000A50194010E945514F70160837183828368
:101E60009383FFEFCF1ADF0A09CF772009F4B7C0B9
:101E7000C980DA80EB80FC8020E030E0A901C70156
:101E8000B6010E94501487FD1BC08D809E80AF80DC
:101E9000B884A5019401C701B6010E94501487FFC0
:101EA00012C0EE24E394F12C20E030E0A901C5013A
:101EB000B4010E94AF1518160CF0E12C870105C083
:101EC00001E010E002C000E010E0F801EE0FFF1F9B
:101ED000EE0FFF1FA1E0B0E0AC0FBD1FEA0FFB1F2C
:101EE00080809180A280B38020E030E0A901C5010C
:101EF000B4010E94501487FD15C0C984DA84EB84B4
:101F0000FC84A7019601C501B4010E94501487FF0B
:101F10000BC020E030E0A901C701B6010E94AF1557
:101F2000181614F402E010E08CE4809FF001819F09
:101F3000F00D1124E95BFE4F80E090E0A0E8BFE3E4
:101F400080839183A283B38367E4C62E61E0D62E9B
:101F5000E12CF12C5801AA0CBB1CAA0CBB1CA1E063
:101F6000B0E0AC0FBD1FAA0EBB1EE016F106E9F0F3
:101F7000ED85FE85408051806280738020E030E0F6
:101F8000A901C301B2010E94AF15181674F4D5015E
:101F90002D913D914D915C91C301B2010E94551468
:101FA000F6016083718382839383FFEFEF1AFF0A48
:101FB0002D853E852C5F3F4F3E872D873CE4C30E29
:101FC000D11C83E0E816F10481F600E311E04BE058
:101FD000E42EFF24FA9455EFC52ED12C2CC1DE013E
:101FE0001196B88BAF87812C912CA12CB12C212C70
:101FF000312C00E010E0EF85F889C190D190E1909C
:10200000F190F88BEF8720E030E0A901C701B6011D
:102010000E94AF1587FD20C0F101EE0FFF1FEE0FEC
:10202000FF1F21E030E02C0F3D1FE20FF31F408027
:10203000518062807380A3019201C701B6010E94A2
:10204000501487FD08C020E030E0A901C301B201AF
:102050000E94501487FD18019401A501C701B60123
:102060000E94AF15181614F4460157010F5F1F4F59
:102070000330110509F0BFCF2AE037ED43E25CE3FE
:10208000B401C5010E94AF1518160CF09ECF8CE468
:10209000829DF001839DF00D1124E95BFE4F80E0ED
:1020A00090E0A0E8BFE380839183A283B383A7E499
:1020B000B1E0B88BAF8700E010E0C101880F991F35
:1020C000880F991FE1E0F0E0EC0FFD1FE80FF91F0A
:1020D000FA8BE98B2016310609F456C0AD85BE8512
:1020E000CD90DD90ED90FC9020E030E0A901C7019B
:1020F000B6010E94AF1587FD47C0E989FA89808043
:102100009180A280B380A501940160E070E080E836
:102110009FE30E94E313A70196010E94B4152B01CF
:102120003C01A701960160E070E080E89FE30E9417
:10213000E313A50194010E94B4159B01AC01C301F6
:10214000B2010E9455149B01AC0160E070E080E890
:102150009FE30E9455146B017C0120E030E0A9014F
:10216000AF85B8896D917D918D919C910E94B41538
:102170009B01AC01C701B6010E94E413EF85F88909
:1021800060837183828393830F5F1F4F2D853E850C
:102190002C5F3F4F3E872D878F859889845B9F4FAB
:1021A000988B8F870330110509F094CF0ECF20E074
:1021B00030E0A90157966D917D918D919C915A9730
:1021C0000E94501487FF09C08DEC9CECACECBDE381
:1021D000F801878B908FA18FB28FD8011D966D91DA
:1021E0007C911E97072E000C880B990B0E94FF1400
:1021F000F8012789308D418D528D0E94B4150E94BF
:10220000C714663F7105E4F4D8011E967C936E9363
:102210001D97D8011D968D919C911E978B309F4FD5
:102220001CF4F801F686E586045B1F4FF2E00431EA
:102230001F0709F44DCDD8018C918823A9F3B7CF9E
:10224000F801D686C586E5CF61E012968C910E9492
:10225000AF0061E0F80186810E94AF00D801DD96F1
:102260006D917C91DE97161617063CF48C910E94B6
:10227000890160E070E0F8010CC060E070E0D80116
:102280008C910E948901F80165AD76AD71956195DB
:10229000710984810E94890123CDEEEFF2E013825F
:1022A000128288EE93E0A0E0B0E084839583A68359
:1022B000B7832CEF31E031832083EEE4F3E0138227
:1022C000128284839583A683B7838CE092E0918306
:1022D00080838AE093E09587848785E094E0978700
:1022E000868785EC90E0918B808B84EC90E0938BDB
:1022F000828B80EC90E0958B848B81EC90E0978BC7
:10230000868B82EC90E0918F808F86EC90E0938FAB
:10231000828F84E0848F83E0858F87E0868F85E0DD
:10232000878F81E080A3E0E7F3E0138212828CE1E3
:1023300092E09183808387E2848380E1808782E0DA
:102340008187128688E083870895DC01FB018C91E8
:1023500090819D9381934150510914161506BCF349
:102360000895A0E0B0E0E7EBF1E10C94AB137C0141
:102370006B01D42FC52F8901F90109956D2F7C2F91
:1023800097FF10C0C601F801099597FF02C0C6016A
:1023900018C06D2F7C2FC701F801099597FD0FC05C
:1023A000C7010FC0C601F8010995181619067CF37C
:1023B0006D2F7C2FC701F801099597FDF1CF8D2F67
:1023C0009C2FCDB7DEB7E8E00C94C713AAE0B0E0CD
:1023D000ECEEF1E10C94A1138C017B015A87498743
:1023E000690129853A85200F311F3A83298337E017
:1023F000E316F10470F569807A8049855A85E49E78
:102400005001E59EB00CF49EB00C1124A00EB11E3C
:102410006A147B0408F07AC173010E151F0528F0B9
:1024200089859A85680E791EF3CF4701E985FA857B
:102430008E1A9F0AB701C401F601099518161906EC
:102440007CF749855A85B401C7010E94A511740122
:10245000E4CFC7019695879529853A85829F5001DB
:10246000839FB00C929FB00C1124A00EB11EA70147
:10247000415051095C834B8357E0E516F10409F4A0
:102480004CC08B819C81829F3001839F700C929FF6
:10249000700C1124600E711E99E2E916F104A8F186
:1024A000C70143E0969587954A95E1F7829F4001E1
:1024B000839F900C929F900C11241401220C331CCA
:1024C000A801420D531DB801680D791D9601C80180
:1024D0000E94B1112C01A501480D591D91948194C0
:1024E00091089601B501C501880D991D0E94B11191
:1024F0005C01B301680D791D9601A301C301821926
:1025000093090E94B1113C0101C028019601A30169
:10251000B501C2010E94B1115C0149855A85B5011E
:10252000C8010E94A51169807A802B813C81498570
:102530005A85249FF001259FF00D349FF00D112442
:10254000FE83ED835F01A00EB11E460D571D5C8317
:102550004B83250113011A8219828B809C80898507
:102560009A85881A990AA814B90408F450C0B801C9
:10257000C401F601099518161906C4F1892B71F4E6
:1025800049855A85B401C1010E94A51189859A85A2
:10259000280E391EE1E0F0E0FA83E9832B813C81CB
:1025A00049855A85240F351F3C832B83D6CFB8012C
:1025B000C501F6010995950149855A85241B350BFE
:1025C00038872F8397FD16C0892B71F449855A856A
:1025D000B201C5010E94A51129853A85421A530A04
:1025E00041E050E05A834983AF80B884A814B9040D
:1025F000F0F60DC049855A85B501C4010E94A511A8
:10260000AF80B88441E050E05A834983C7CF8981C5
:102610009A81892B09F44FC06D807E8029853A8587
:10262000620E731E600E711E7401E218F308A101A0
:10263000401B510BE416F5060CF4A7011416150601
:1026400034F4B401641B750BC8010E94A511A201EA
:102650004A195B095A01A3014419550989859A85CC
:10266000481B590BA416B50608F4A5011416150647
:1026700034F4B301641B750BC4010E94A511E985F4
:10268000FA85EE15FF0548F4C701BF010E948D13BE
:102690009601AF01C8010E94E61129853A852A15E5
:1026A0003B05A0F583010A191B09C501B9010E9468
:1026B0008D137B0196CEE985FA85EE9E5001EF9E43
:1026C000B00CFE9EB00C1124A00EB11E6A147B0447
:1026D000E8F473010E151F0528F089859A85680EA8
:1026E000791EF4CF4701E985FA858E1A9F0AB70152
:1026F000C401F6010995181619067CF749855A8513
:10270000B401C7010E94A5117401E4CF2A96E2E149
:102710000C94BD13F8940C946516AA1BBB1B51E1D5
:1027200007C0AA1FBB1FA617B70710F0A61BB70B41
:10273000881F991F5A95A9F780959095BC01CD01E6
:1027400008952F923F924F925F926F927F928F9255
:102750009F92AF92BF92CF92DF92EF92FF920F9330
:102760001F93CF93DF93CDB7DEB7CA1BDB0B0FB63A
:10277000F894DEBF0FBECDBF09942A8839884888F7
:102780005F846E847D848C849B84AA84B984C8848D
:10279000DF80EE80FD800C811B81AA81B981CE0F84
:1027A000D11D0FB6F894DEBF0FBECDBFED01089569
:1027B00085FD0C942616806291110C942616815684
:1027C0008A51D8F708955058BB27AA270E94FB13B7
:1027D0000C9475150E94671538F00E946E1520F054
:1027E00039F49F3F19F426F40C9464150EF4E09527
:1027F000E7FB0C945E15E92F0E94861558F3BA1773
:10280000620773078407950720F079F4A6F50C9406
:10281000A8150EF4E0950B2EBA2FA02D0B01B901CF
:1028200090010C01CA01A0011124FF27591B99F046
:10283000593F50F4503E68F11A16F040A22F232F52
:10284000342F4427585FF3CF469537952795A795A2
:10285000F0405395C9F77EF41F16BA0B620B730B49
:10286000840BBAF09150A1F0FF0FBB1F661F771FBA
:10287000881FC2F70EC0BA0F621F731F841F48F46F
:10288000879577956795B795F7959E3F08F0B0CFF8
:102890009395880F08F09927EE0F979587950895DF
:1028A0000E943A1508F481E008950E9469140C947E
:1028B00075150E946E1558F00E94671540F029F4B6
:1028C0005F3F29F00C945E1551110C94A9150C94DE
:1028D00064150E94861568F39923B1F3552391F38B
:1028E000951B550BBB27AA2762177307840738F07F
:1028F0009F5F5F4F220F331F441FAA1FA9F335D0DC
:102900000E2E3AF0E0E832D091505040E695001C8F
:10291000CAF72BD0FE2F29D0660F771F881FBB1F49
:10292000261737074807AB07B0E809F0BB0B802D27
:10293000BF01FF2793585F4F3AF09E3F510578F053
:102940000C945E150C94A9155F3FE4F3983ED4F304
:10295000869577956795B795F7959F5FC9F7880F27
:10296000911D9695879597F90895E1E0660F771F79
:10297000881FBB1F621773078407BA0720F0621B0A
:10298000730B840BBA0BEE1F88F7E09508950E9435
:10299000CE146894B1110C94A91508950E948E1557
:1029A00088F09F5798F0B92F9927B751B0F0E1F010
:1029B000660F771F881F991F1AF0BA95C9F714C0C0
:1029C000B13091F00E94A815B1E008950C94A815BB
:1029D000672F782F8827B85F39F0B93FCCF38695F9
:1029E00077956795B395D9F73EF490958095709556
:1029F00061957F4F8F4F9F4F0895E89409C097FBD3
:102A00003EF490958095709561957F4F8F4F9F4FC5
:102A10009923A9F0F92F96E9BB279395F695879509
:102A200077956795B795F111F8CFFAF4BB0F11F4CC
:102A300060FF1BC06F5F7F4F8F4F9F4F16C0882373
:102A400011F096E911C0772321F09EE8872F762FA9
:102A500005C0662371F096E8862F70E060E02AF0EA
:102A60009A95660F771F881FDAF7880F96958795D6
:102A700097F90895990F0008550FAA0BE0E8FEEFAB
:102A800016161706E807F907C0F012161306E40732
:102A9000F50798F0621B730B840B950B39F40A262B
:102AA00061F0232B242B252B21F408950A2609F409
:102AB000A140A6958FEF811D811D089597F99F670D
:102AC00080E870E060E008959FEF80EC08950024B6
:102AD0000A941616170618060906089500240A9483
:102AE00012161306140605060895092E0394000C09
:102AF00011F4882352F0BB0F40F4BF2B11F460FF98
:102B000004C06F5F7F4F8F4F9F4F089557FD9058C0
:102B1000440F551F59F05F3F71F04795880F97FBA1
:102B2000991F61F09F3F79F087950895121613065B
:102B30001406551FF2CF4695F1DF08C0161617068A
:102B40001806991FF1CF86957105610508940895BF
:102B5000E894BB2766277727CB0197F908950E9451
:102B60003A1508F48FEF08950E94C7150C94751557
:102B70000E94671538F00E946E1520F0952311F021
:102B80000C945E150C94641511240C94A9150E94E4
:102B9000861570F3959FC1F3950F50E0551F629F06
:102BA000F001729FBB27F00DB11D639FAA27F00DA6
:102BB000B11DAA1F649F6627B00DA11D661F829FCD
:102BC0002227B00DA11D621F739FB00DA11D621FB2
:102BD000839FA00D611D221F749F3327A00D611DCF
:102BE000231F849F600D211D822F762F6A2F1124B1
:102BF0009F5750409AF0F1F088234AF0EE0FFF1FE4
:102C0000BB1F661F771F881F91505040A9F79E3F3A
:102C1000510580F00C945E150C94A9155F3FE4F308
:102C2000983ED4F3869577956795B795F795E79590
:102C30009F5FC1F7FE2B880F911D9695879597F999
:102C400008950E943A15880B990B089599278827B3
:102C5000089597FB072E16F4009407D077FD09D04E
:102C60000E948D1307FC05D03EF4909581959F4FEF
:102C70000895709561957F4F0895A1E21A2EAA1BC1
:102C8000BB1BFD010DC0AA1FBB1FEE1FFF1FA2171C
:102C9000B307E407F50720F0A21BB30BE40BF50B19
:102CA000661F771F881F991F1A9469F760957095A2
:102CB000809590959B01AC01BD01CF010895EE0F69
:0E2CC000FF1F0590F491E02D0994F894FFCFCA
:102CCE0003000200050004007201C0030E000000A4
:102CDE00A042000000000000000000000000000004
:102CEE0000000000000000000000000000000000D6
:102CFE0000000000000000000000000000000000C6
:102D0E0000000000000000000000000006000700A8
:102D1E00090008007201C0030F000000F04100001E
:102D2E000000000000000000000000000000000095
:102D3E000000000000000000000000000000000085
:102D4E000000000000000000000000000000000075
:102D5E0000000000000000000A000C000B000D0037
:102D6E007201C00310000000A0420000000000002D
:102D7E000000000000000000000000000000000045
:102D8E000000000000000000000000000000000035
:102D9E000000000000000000000000000000000025
:102DAE00000000000000400014005400000080BF2E
:102DBE00000080BF000080BF0000000080065306A8
:102DCE004B063C062E062D0600000000B0068700BE
:102DDE003907FD061D07F206000000006B0987008B
:102DEE006E616E00696E66006F7666002E00486535
:102DFE006C6C6F2C20776F726C6421006C65672091
:102E0E006E756D6265723A200029003A002F003A05
:102E1E002064697361626C65640053200069645BB1
:102E2E00005D0044206E65772074617267657420C2
:0A2E3E0069733A202800293A2000A9
:00000001FF
